:0400000008EF3EF0D7
:107BF8008A828A948A9612008A928A948A861200C5
:107C08008A928A848A961200000EF86E0001B1EFFB
:107C18003EF0000E026E000E016E02BE06D0D00EBF
:107C2800015C070E0258D8B01200014A022AF5D7A3
:107C3800000E066E000E056E03500410D8B41CD05A
:107C4800010E076E04D0D89003360436072A04AE16
:107C5800FAD7D890053606360350015C045002580E
:107C6800D8A005D00350015E0450025A0580D89070
:107C780004320332072EEDD705C001F006C002F02A
:107C88001200000E096E000E0A6E000E0B6E000E3A
:107C98000C6E01A008D00550092606500A2207508C
:107CA8000B2208500C22D8900536063607360836BF
:107CB800D89004320332023201320150021003100C
:107CC8000410D8A4E6D709C001F00AC002F00BC01E
:107CD80003F00CC004F01200000E096E000E0A6ECC
:107CE800000E0B6E000E0C6E0550061007100810E3
:107CF800D8B42AD0010E0D6E06D0D89005360636B7
:107D0800073608360D2A08AEF8D7D89009360A364D
:107D18000B360C360550015C0650025807500358C4
:107D280008500458D8A009D00550015E0650025AE0
:107D38000750035A0850045A0980D890083207326D
:107D4800063205320D2EE1D709C001F00AC002F053
:107D58000BC003F00CC004F01200000E376E000ECA
:107D6800366E000E396E000E386E0F0EC16E000EA4
:107D7800D56E720ED36E070EB46E800EF16E000EC5
:107D8800936E000E926E000E8A6E000E896E9392AC
:107D98009394939634EC3FF00EC038F00FC039F04E
:107DA80039500AE18C0E385CD8B006D000EC3EF0B1
:107DB800000E376E000E0CD0320E385C010E3958AA
:107DC800D8A003D0FCEC3DF025D004EC3EF02ED03A
:107DD800366E34EC3FF00EC038F00FC039F02DD0BD
:107DE800395004E18D0E385CD8A0F3D704EC3EF08E
:107DF8001DD0395007E1510E385CD8B003D000ECE3
:107E08003EF0D6D7320E385C010E3958D8A0E1D7EB
:107E1800FCEC3DF0000E376E020EDAD7140E385C1B
:107E2800010E3958D8B0D5D704EC3EF0000E376EA5
:107E3800010ECED700EC3EF0BBD736C034F037C0C9
:107E480035F03550000AD8A4F5D73450000AD8B414
:107E5800C7D7010AD8B4CDD7030AD8B4DFD7EAD731
:107E6800000E2B6E000E2A6E000E2D6E000E2C6E6C
:107E78002DBE08D02D5005E10A0E2C5CD8B08DD04F
:107E880001D08BD0000ED76E000ED66E93908A90DC
:107E98000DEC3EF08A800DEC3EF08A90938081A034
:107EA800FED7D58E81B0FED7D59ED6CF28F0D7CFB6
:107EB80029F0285029C010F0116A10C011F0106A7A
:107EC8001026000E112210C030F011C031F0000E43
:107ED80031BEFF0E326E336E30C010F031C011F07B
:107EE80032C012F033C013F0D8901332123211326C
:107EF800103210C030F011C031F012C032F013C08F
:107F080033F030C001F031C002F032C003F033C0AA
:107F180004F0220E056E000E066E000E076E000EAF
:107F2800086E45EC3EF001C030F002C031F003C0ED
:107F380032F004C033F030C001F031C002F032C07A
:107F480003F033C004F0E80E056E030E066E000E53
:107F5800076E000E086E70EC3EF001C030F002C0F3
:107F680031F003C032F004C033F0D8902C34D96E0D
:107F78002D34DA6E140ED926000EDA2230C0DEFF58
:107F880031C0DDFF0DEC3EF00DEC3EF02C4A2D2A01
:107F98002DBE78D72D5001E16FD7000E2F6E000E41
:107FA8002E6E2FBE06D02F5014E10A0E2E5CD8B0CC
:107FB80010D0D8902E34D96E2F34DA6E140ED926FC
:107FC800000EDA22DE502A26DD502B222E4A2F2AD6
:107FD800E8D72AC001F02BC002F0000E046E0A0E8A
:107FE800036E1CEC3EF001C02AF002C02BF02AC040
:087FF8000EF02BC00FF0120087
:020000040020DA
:08000000FFFFFFFFFFFFFFFF00
:020000040030CA
:0E000000FF081F1EFF8181FF0FC00FE00F40A1
:00000001FF
